:020000040800F2
:10000000A0040020A91100081D1100081F110008FC
:10001000211100082311000825110008000000002C
:100020000000000000000000000000002711000890
:1000300029110008000000002B1100082D110008F4
:10004000CD110008D1110008D5110008D911000800
:10005000DD110008E1110008E5110008E9110008B0
:10006000ED110008F11100083B110008F51100081E
:10007000F9110008FD11000801120008051200081E
:10008000091200080D1200081112000815120008CC
:10009000191200081D12000821120008251200087C
:1000A000291200082D12000831120008351200082C
:1000B000391200083D1200084112000845120008DC
:1000C000491200084D12000851120008551200088C
:1000D000591200085D12000861120008651200083C
:1000E000691200086D120008711200082DE9F8432A
:1000F0000646DFF894543078C10748D5686800F0A8
:100100000C00042807D0686800F00C0008280BD108
:100110006868C10308D52868810338D5706800284D
:1001200040F0BE80012067E17068B0F5803F04D1E7
:10013000286840F48030286014E008B928680AE094
:10014000B0F5A02F286806D140F4802028602968E7
:1001500041F4803105E020F480302860296821F4E2
:1001600080212960706868B100F02EFA0446286882
:10017000810300F1958000F027FA001B6528F6D373
:10018000032039E100F020FA04462868810340F199
:10019000878000F019FA001B6528F6D3F0E700F01D
:1001A00013FA001B022840F2AA80E9E7306970B117
:1001B0000121396000F008FA04462868810700F13F
:1001C000DC8000F001FA001B0228F6D9D8E738607D
:1001D00000F0FAF904462968880765D500F0F4F9BB
:1001E000001B0228F7D9CBE7086000F0EDF90446C0
:1001F000686A810777D500F0E7F9001B0228F7D974
:10020000BEE708B9286A09E00528286A06D140F047
:1002100004002862286A40F0010005E04008400020
:100220002862286A20F00400286241F28938F068C8
:1002300068B100F0C9F98146286A810700F1AA80F7
:1002400000F0C2F9A0EB09004045F5D398E700F0B3
:10025000BBF98146286A810740F19C8000F0B4F91F
:10026000A0EB09004045F5D38AE700F0ADF9001B8B
:10027000022840F2A28083E700F0A6F9001B0228C2
:1002800040F2B5807CE700F0B9F8044628688101A7
:1002900040F1B18000F098F9001B0228F6D96FE711
:1002A0003078DFF8F07281071BD5686810F00C0F0A
:1002B00009D0686800F00C0008287FF477AF686800
:1002C000C1033FF573AF2868810703D53069012862
:1002D0007FF428AF2968706921F0F80141EAC00174
:1002E0002960317808071DD5B069DFF8AC12002805
:1002F0003FF47AAF01220A6000F066F90446686AAA
:1003000081077FF54CAFDFF884020268D2084FF412
:100310007A71B2FBF1F1009100BF0098411E0028F4
:100320000091F9D13078410739D5E8690024C1003E
:1003300009D4E86940F08050E8610124E86900F0E0
:10034000805000900098DFF85482D8F80000C10572
:100350001BD4D8F8000040F48070C8F8000000F00A
:1003600033F98146D8F80000C1050ED400F02CF90D
:10037000A0EB09006528F5D302E72868716920F031
:10038000F80040EAC1002860ABE7F06801287FF47C
:1003900038AF3FE71CB1E86920F08050E861F069B0
:1003A00048B3696801F00C0108293FF4BBAE02288C
:1003B0007FF469AF00F022F80446286881013FF518
:1003C00054AF306AB0F5803F05D16968B06821F458
:1003D0000031014369606A68306A716A22F47412FC
:1003E00002430A436A60012000F009F804462868C5
:1003F00081017FF541AF0020BDE8F283002038661F
:1004000000F0E2B82DE9F843654F054638688946A3
:1004100000F00700484502D200F079F86BD1287847
:10042000594C810705D56268A86822F0F0020243A2
:1004300062602978C80756D56868012802D121680A
:100440008A0303E00228216802D18A0102D452E023
:100450008A0750D56168890840EA8100606041F2EE
:10046000893800F0B1F80646686801280BD1606849
:1004700000F00C00042836D000F0A6F8801B4045A0
:10048000F5D303202DE0022837D1606800F00C007E
:10049000082828D000F098F8801B4045F5D3F0E7F5
:1004A0002878410705D56268E86822F4E0620243D3
:1004B00062602978080706D56168286921F46051CF
:1004C00041EAC001616000F02DF8626835492F4BA8
:1004D000C2F30312895CC8401860002000F07AF86B
:1004E0000020BDE8F283386800F007008145D7D2CC
:1004F00000F00DF8D4D00120F3E7606810F00C0F85
:10050000F1D000F061F8801B4045F6D3B9E73968B7
:10051000C90849EAC1013960386800F00700484558
:100520007047000020491A480A6802F00C03082BA3
:1005300000D0704710B500BF1EA4C2F38343D2039E
:10054000E35C08D5096858431EA3C1F340415A5CD7
:10055000B0FBF2F010BD18461449484310BD0B48DB
:10056000006870470948104A006813681049C3F3CF
:10057000022206E005480C4A006813680C49C3F3E0
:10058000C222895CC84070470010024090000020E1
:1005900000127A0000004242800442420070004093
:1005A00000200240AC1000080410024000093D0089
:1005B000C411000802030405060708090A0B0C0D04
:1005C0000E0F10100102000001484068704700BF84
:1005D0008400002038B50D4D0D4B2A7804464FF4A9
:1005E0007A711868B1FBF2F2B0FBF2F000F053F848
:1005F00050B9102C08D2002221464FF0FF3000F0F5
:1006000023F8AC60002032BD012032BD8400002000
:10061000900000200901020006D52F4A00F00F00CB
:10062000104400F8041C70472C4B195470472C4B95
:1006300019684FF6FF020002114000F4E060084321
:10064000284908431860704738B5254B1C68C4F327
:100650000223C3F10704052C28BF04241D1D072D08
:1006600034BF0023DB1E012505FA04F4641E21407B
:10067000994005FA03F35B1E1A401143BDE834406C
:10068000C8E7012200F01F01174BFFE78A4040092D
:1006900043F82020704710B5401EB0F1807F01D391
:1006A000012010BD114C60600F214FF0FF30FFF7AB
:1006B000B1FF0021A16007202060002010BD0428A8
:1006C0000A4904D1086840F00400086070470A68CD
:1006D00022F004020A60704718ED00E000E400E038
:1006E0000CED00E00000FA0500E100E010E000E0A1
:1006F00000F000B87047000010B500F035F900F0C8
:1007000029F800F08AF88D4C8D4820604FF4E131D3
:100710000C20002260616160A260E2602261A2613F
:10072000E261204600F032F900B1FEE700F04AF83D
:1007300001224FF4804100F0EAF8206C416AD4F8BD
:1007400080008142F9D304F1400000F0E7F900F0A5
:10075000CEF8F2E700B54FF4803100228FB0069159
:1007600007920D9101200590099002224FF4E011AB
:100770000C920E9105A8FFF7B9FC00B1FEE702212B
:1007800001910F204FF480610090002203910292AA
:10079000049202216846FFF735FE00B1FEE7FFF73D
:1007A000DEFE4FF47A71B0FBF1F0FFF774FF042026
:1007B000FFF785FF002200214FF0FF30FFF744FFD5
:1007C0000FB000BD5F48472110B55C4C20646164E8
:1007D0000020A0644FF6FF7120656065A065E164AC
:1007E00086B004F1400000F083F900B1FEE74FF459
:1007F0008050029002A904F1400000F0B9F900B164
:10080000FEE700210091019104F14000694600F0EB
:1008100089FA00B1FEE706B010BD30B54A484B4D2D
:100820004B4C85B0016841F020010160026802F084
:10083000200204920499026842F0040202600368F4
:1008400003F0040304930499026842F00802026072
:100850000022006800F0080004903021049B284624
:1008600000F047FB00224FF47041204600F041FBAE
:10087000302100F01DF8284600F07AFA4FF470415C
:1008800000F016F8204600F073FA4FF47A70002159
:1008900000F017F810202F4900F013F80022002173
:1008A0000A20FFF7D1FE0A20FFF7EBFE05B030BDAE
:1008B00000910122019200210291022203926946D5
:1008C000704700900191012202926946204600F093
:1008D0004FBA80B520490120086001224FF48051B1
:1008E00000F015F8BDE80840012220210CE080B599
:1008F0001A490120086001224FF4005100F007F866
:10090000BDE8084001221021104800F0F2BA10485A
:1009100000F0EFBA10B5124C206860B901224FF414
:100920000041FFF7F4FFFFF7D4FF0E4800F0EDF8A9
:100930002068401C206010BD000000000000002066
:1009400000380140002C014018100240000801400E
:10095000000C0140000021109400002098000020AD
:100960009C0000204000002080B50748016841F04D
:10097000100101600320FFF75AFE0020FFF72AFE56
:1009800000F0E0FA002002BD0020024038B504006B
:1009900001D1012032BD00F021F808B900F022F8A1
:1009A00000F012F800F023F8FFE7416100F001F8D1
:1009B00032BD2068C16841F40051C1600020686008
:1009C00020216970A9707047242068702068C16870
:1009D00021F40051C160204600F013B804F138053D
:1009E0006878704700212970204600F005BB206818
:1009F000016921F4904101612068416921F02A01D7
:100A000070472DE9F0470446642522681169E068C3
:100A100021F44051014311611926D3683249A0687D
:100A20000B402169034360690B430343D360516961
:100A3000A06921F4407101432C48516182420ED1DA
:100A4000FFF798FD0746FFF795FD8046FFF792FDFB
:100A50008146FFF78FFD8246FFF78CFD0DE0FFF723
:100A600081FD0746FFF77EFD8046FFF77BFD81464F
:100A7000FFF778FD8246FFF775FD616889007743CF
:100A8000B7FBF1F36422B3FBF2F206FB08F3B3FB0E
:100A9000F1F706FB09F3B3FBF1FCAE46BCFBFEFE2F
:100AA00005FB1E773F0132376423B7FBF3F303F0F6
:100AB000F00303EB021306FB0AF74643B7FBF1F220
:100AC000B6FBF1F06421B0FBF1F105FB11252D011E
:100AD00032356420B5FBF0F0216800F00F00C31838
:100AE0008B60BDE8F0870000F3E9FFFF00380140AC
:100AF00038B5040001D1012032BD00F035F818B935
:100B000000F02EF800F067FA20E0022180F83D1096
:100B100001680A6842F001020A6012E0022180F8CE
:100B20003D1041F2111301680A6A1A4202BF0A6AB3
:100B300040F244431A42FFE703D10A6852085200C8
:100B40000A60012180F83D10002070470220687083
:100B5000211D206800F077F801206870002032BD68
:100B6000002129702046704704F13C0568787047E1
:100B700038B500F05CF801D1022032BD01202070B0
:100B800002226270DFF81C012A68936803409360B8
:100B90000A68002A37D0102A37D0202A37D0302AC6
:100BA00037D0402A2BD0502A1ED0602A20D0702A5D
:100BB0000BD0B2F5805F03D0B2F5005F0CD02CE013
:100BC00028688168C908C9000CE000F02BF8286883
:100BD000816841F0770105E000F024F82868816819
:100BE00041F48041816018E000F018F8502111E0D4
:100BF000CA684968286800F06EF860210AE000F0D1
:100C00000DF8402106E0002104E0102102E020213F
:100C100000E03021286800F070F80EE0CA684968EA
:100C2000286849E0CB684A68896828686DE005460D
:100C300005F13C04207801287047012060700021F4
:100C40002170002032BD70B5174E0368174C184D47
:100C5000B04218BFB0F1804F03D0A84218BFA042E5
:100C600009D14A6823F070031343B0421CBFB0F1AE
:100C7000804FA84201D0A04203D1CA6823F4407338
:100C800013434A6923F0800313430360B0428B6827
:100C9000C3620A68826202D10969064A11600123AF
:100CA000436170BD8800FFFF002C01400008004038
:100CB00000040040302C014010B5036A046A640847
:100CC0006400046223F00A03846924F0F00444EA17
:100CD0000214846123E010B5036A23F01003036259
:100CE0008369046A23F4704343EA023324F0A004C6
:100CF000836144EA0114046210BD826822F070022C
:100D0000114341F007018160704710B5846824F4F5
:100D10007F442143114341EA0321816010BD1943FF
:100D2000016210BD30B500F13C031A78012A01D1EF
:100D3000022030BD01221A7002245C7002685468DF
:100D400024F070045460046865680A68154365609F
:100D50000268946824F0800494600268946848688B
:100D600004439460012159700020187030BD0000C8
:100D70002DE9F843024600200025644BDFF89091EE
:100D800001270E68AF403E40BE4240F0AC804C6848
:100D90006CB3012C20D0022C23D0032C32D0112C88
:100DA0001CD0122C20D0DFF86CE174451CBFDFF89A
:100DB00068E174451BD0DFF864E174451CBFDFF8BF
:100DC00060E1744513D0DFF85CE174451CBFDFF8C7
:100DD00058E174450BD016E0C86814E0C868001DDF
:100DE00011E0C86808300EE0C8680C300BE0886875
:100DF00008B9042007E0012819BF0820576108201E
:100E0000176100E00020B6F5807F03D294464FEAD8
:100E1000850E05E0A5F1080402F1040C4FEA840EEA
:100E20000F27DCF8008007FA0EF428EA040400FA21
:100E30000EFE4EEA0404CCF800404C68E40052D5A3
:100E4000D9F80040DFF8E4E044F00104C9F80040BC
:100E50004FEA950CD9F8004004F0010400944FEAE1
:100E60008508009C5EF82C4008F00C0807FA08F78B
:100E700024EA07072E4CA24208BF00240ED02D4CB6
:100E8000A24208BF012409D02B4CA24208BF022471
:100E900004D02A4CA2420CBF0324042404FA08F410
:100EA00027434EF82C70F7434C68E4031C684CBF92
:100EB00034433C401C604C68A4035C684CBF344322
:100EC0003C405C604C68E4029C684CBF34433C404E
:100ED0009C604C68A40203D5DF683E43DE6002E0FC
:100EE000DE683740DF606D1C0F2D7FF649AFBDE82F
:100EF000F18302B9090401617047114A1368034282
:100F00001CBF1060FFF706BD7047000000040140E1
:100F100018100240000011100000121000002110F3
:100F200000002210000031100000321008000140C3
:100F300000080140000C0140001001400014014075
:100F40001404014080B54148016841F0010101608D
:100F5000026802F0010200920099426842F0805259
:100F60004260406800F08050009000980320FFF736
:100F70005EFB002200216FF00B00FFF765FB0022F3
:100F800000216FF00A00FFF75FFB002200216FF0E5
:100F90000900FFF759FB002200216FF00400FFF762
:100FA00053FB002200216FF00300FFF74DFB0022EE
:100FB00000216FF00100FFF747FB002200214FF0F6
:100FC000FF30FFF741FB2248016821F0E06141F06A
:100FD0000071016001BD81B000681E49884209D1DD
:100FE0001A48026842F400620260006800F400607F
:100FF0000090009801B0704700681749884200D0FF
:10100000704718B51148154C85B0026842F480420B
:1010100002604FF40071006800F4804000900222EA
:1010200000980191029203210491204601A9FFF743
:101030009FFE00214FF4806202910391019201A969
:101040002046FFF795FE06B010BD000018100240C4
:1010500004000140002C014000380140000801401C
:1010600010B50E4A0E49106840F001001060536838
:101070000C480B405360146804401460116821F45C
:10108000802111604FF41F01506820F4FE00506071
:1010900091604FF00060044A106010BD00100240E3
:1010A0000000FFF8FFFFF6FE08ED00E00000000082
:1010B00000000000010203040607080930B50168BA
:1010C00084684218416802EB5103C9070BD54C44B0
:1010D00009E012F9011B12F8015B002904F8015B19
:1010E00005D5491CF9D19A42F3D10C3030BD491EC7
:1010F000F1D5F8E710B5074979441831064C7C441E
:10110000163404E00A68081D114488470146A142CC
:10111000F8D110BD3C000000480000007047FEE719
:10112000FEE7FEE7FEE770477047704780B500F0C6
:1011300007F8BDE80140FFF7DBBA1020FFF7DDBE7E
:1011400002494A68087882184A6070478400002083
:101150006DFFFFFF200100002A00000000000020BA
:1011600000F00DF8002801D0FFF7C4FFAFF30080B6
:101170000020AFF30080FFF7BFFA00F002F8012073
:10118000704700F001B800000746384600F002F84A
:10119000FBE7000080B5AFF30080024A1100182081
:1011A000ABBEFBE72600020001488047014800472C
:1011B00061100008B9110008AFF30080AFF30080A0
:1011C000FFF7CEFF0000000001020304FFF7FEBF9F
:1011D000FFF7FEBFFFF7FEBFFFF7FEBFFFF7FEBF43
:1011E000FFF7FEBFFFF7FEBFFFF7FEBFFFF7FEBF33
:1011F000FFF7FEBFFFF7FEBFFFF7FEBFFFF7FEBF23
:10120000FFF7FEBFFFF7FEBFFFF7FEBFFFF7FEBF12
:10121000FFF7FEBFFFF7FEBFFFF7FEBFFFF7FEBF02
:10122000FFF7FEBFFFF7FEBFFFF7FEBFFFF7FEBFF2
:10123000FFF7FEBFFFF7FEBFFFF7FEBFFFF7FEBFE2
:10124000FFF7FEBFFFF7FEBFFFF7FEBFFFF7FEBFD2
:10125000FFF7FEBFFFF7FEBFFFF7FEBFFFF7FEBFC2
:10126000FFF7FEBFFFF7FEBFFFF7FEBFFFF7FEBFB2
:10127000FFF7FEBF810005001027000001F9000004
:0912800010FC0002A24A04F40073
:04000005080011B925
:00000001FF
